:020000040800F2
:1000000000800120310200088102000881020008FE
:10001000810200088102000881020008000000003F
:100020000000000000000000000000008102000845
:10003000810200080000000081020008810200081F
:10004000000000008102000881020008810200080F
:100050008102000881020008810200088102000874
:100060008102000881020008810200088102000864
:100070008102000881020008810200088102000854
:1000800081020008810200088102000800000000CF
:1000900000000000000000000000000081020008D5
:1000A0008102000881020008810200088102000824
:1000B0008102000881020008810200088102000814
:1000C0008102000881020008810200088102000804
:1000D000810200088102000881020008000000007F
:1000E000810200088102000881020008000000006F
:1000F0000000000000000000000000008102000875
:10010000000000008102000881020008810200084E
:1001100000000000000000000000000000000000DF
:1001200081020008810200088102000881020008A3
:100130008102000800000000000000000000000034
:100140000000000000000000000000008102000824
:100150008102000881020008810200088102000873
:100160008102000881020008000000000000000079
:10017000000000000000000000000000000000007F
:10018000000000000000000000000000000000006F
:0401900081020008E0
:1001940010B5054C237833B9044B13B10448AFF3BD
:1001A40000800123237010BD000000200000000027
:1001B400CC02000808B5034B1BB103490348AFF355
:1001C400008008BD0000000004000020CC020008EC
:1001D40080B483B000AF114B1B68104A43F0010395
:1001E40013600F4B1B680E4A43F4806313600C4B7F
:1001F4001B680B4A23F4006313600A4B1B68094A0B
:1002040083F02003136000237B6002E07B680133EA
:100214007B607B68044A9342F8DDEEE730380240A5
:1002240000000240140002403F420F000D48854682
:10023400AFF300800C480D490D4A002302E0D45866
:10024400C4500433C4188C42F9D30A4A0A4C00231C
:1002540001E013600432A242FBD300F011F8FFF76F
:10026400B7FFFEE70080012000000020000000200E
:10027400EC020008000000201C000020FEE7000043
:1002840070B50D4D0D4C641BA4100026A64209D177
:100294000B4D0C4C00F018F8641BA4100026A64269
:1002A40005D170BD55F8043B98470136EEE755F883
:1002B400043B98470136F2E7E4020008E402000830
:1002C400E4020008E8020008F8B500BFF8BC08BC66
:1002D4009E467047F8B500BFF8BC08BC9E46704700
:0402E400B901000854
:0402E8009501000874
:0400000508000231BC
:00000001FF
